:100000000C9444010C9475010C9475010C947501C9
:100010000C9475010C9475010C9475010C94750188
:100020000C9475010C9475010C9475010C94750178
:100030000C9475010C9475010C9475010C94750168
:100040000C9475010C94060A0C9475010C947501BE
:100050000C9475010C9475010C9475010C94320983
:100060000C9475010C9475010C9475010C94750138
:100070000C9475010C9475010C9475010C94750128
:100080000C94D8090C9475010C9475010C947501AD
:100090000C94FC080C94D2080C9475010C94750116
:1000A0000C9475010C9475010C94AA090C947501BB
:1000B0000C9475010C9475010C9475010C947C09D9
:1000C0000C9475010C9475010C9475010C947501D8
:1000D0000C9475010C9475010C9475010C947501C8
:1000E0000C9475010C9454060C940B030C94C701EA
:1000F0000C94FA020C94660F0C942D030C947D0260
:100100000C94EC020C9431030C9415030C94D6015E
:100110000C94F6020C9411030C9425070C948F0395
:100120000C9419030C94790A0C94CF030C94F801E5
:100130000C94EA010C9430020C94FE020C9401031E
:100140000C9407030C9427030C949A010C94530607
:100150000C941F030C94F2020C945E030C94230382
:100160000C942C0300002100240027002A002D00FD
:100170003000330001010000040107010A01000002
:100180002200250028002B002E003100340002013F
:100190000000050108010B010000200023002600DB
:1001A00029002C002F00320000010000030106018D
:1001B00009010505050507050808080802020202ED
:1001C0000A0A0808040404040101010101010101F3
:1001D0000303030303030303040707070C0C0C0CBE
:1001E0000C0C0C0C020202020606060606060606A7
:1001F0000B0B0B0B0B0B0B0B010210202008081034
:100200002040102040800201020108040201010286
:10021000040810204080804020100804020180045F
:1002200002018040201008040201080402010102BA
:1002300004081020408001020408102040800000C3
:100240000A0B02090C0D0E08070304010000000050
:10025000000000000000000000000000000000009E
:10026000000000000000000000001211100000005B
:10027000000000000000000000000000000000007E
:1002800000000000790A660F11241FBECFEFD1E2F3
:10029000DEBFCDBF00E00CBF12E0A0E0B2E0E0E9BD
:1002A000F6E200E00BBF02C007900D92AC3CB10734
:1002B000D9F724E0ACECB2E001C01D92A93BB20733
:1002C000E1F711E0C3E4D1E000E006C021970109A5
:1002D000802FFE010E940F11C234D10780E0080771
:1002E000A9F70E94AB0B0C9436130C94000096E017
:1002F000899FD0011124AA5EBB4F90967C936E9388
:100300005F9791E091969C939197E0918304F0918F
:10031000840490918204992339F0309751F081112F
:1003200008C0809132041994309719F05C968C9132
:10033000FACF0895AF92BF92CF92DF92EF92FF92E1
:100340000F931F93CF93DF936C017B018B01040FFD
:10035000151FEB015E01AE18BF08C017D10759F099
:100360006991D601ED91FC910190F081E02DC601DB
:100370001995892B79F7C501DF91CF911F910F91C5
:10038000FF90EF90DF90CF90BF90AF900895FC0169
:10039000538D448D252F30E0842F90E0821B930BEA
:1003A000541710F0CF96089501970895FC01918D90
:1003B000828D981761F0A28DAE0FBF2FB11D5D9693
:1003C0008C91928D9F5F9F73928F90E008958FEF35
:1003D0009FEF0895FC01918D828D981731F0828DE9
:1003E000E80FF11D858D90E008958FEF9FEF089540
:1003F000FC01918D228D892F90E0805C9F4F821BA4
:1004000091098F73992708958CED92E00E94F8016D
:1004100021E0892B09F420E0822F0895FC01A48DAE
:10042000A80FB92FB11DA35ABF4F2C91848D90E016
:1004300001968F739927848FA689B7892C93A089F9
:10044000B1898C91837080648C93938D848D981383
:1004500006C00288F389E02D80818F7D8083089516
:10046000EF92FF920F931F93CF93DF93EC0181E004
:10047000888F9B8D8C8D98131AC0E889F9898081AB
:1004800085FF15C09FB7F894EE89FF896083E889DE
:10049000F98980818370806480839FBF81E090E0D0
:1004A000DF91CF911F910F91FF90EF900895F62E5D
:1004B0000B8D10E00F5F1F4F0F731127E02E8C8DF7
:1004C0008E110CC00FB607FCFACFE889F98980813C
:1004D00085FFF5CFCE010E940E02F1CFEB8DEC0F20
:1004E000FD2FF11DE35AFF4FF0829FB7F8940B8F59
:1004F000EA89FB8980818062CFCFCF93DF93EC01C3
:10050000888D8823B9F0AA89BB89E889F9898C91FB
:1005100085FD03C0808186FD0DC00FB607FCF7CFB7
:100520008C9185FFF2CF808185FFEDCFCE010E94B7
:100530000E02E9CFDF91CF91089580E090E0892B02
:1005400049F080E090E0892B29F00E9400008111A1
:100550000E94000080E090E0892B29F00E940402B4
:1005600081110E94000080E090E0892B49F080E03A
:1005700090E0892B29F00E94000081110E94000068
:1005800080E090E0892B49F080E090E0892B29F011
:100590000E94000081110C94000008958150823166
:1005A00008F05AC0E82FF0E08827E652FD4F8F4F41
:1005B0000C940F11FA02FE02EC02F202F6022C0376
:1005C000010307030B031103150319031F0323037F
:1005D0002C0327032D033103809180008F778093B4
:1005E00080000895809180008F7DF9CF80918000F8
:1005F000877FF5CF84B58F7784BD089584B58F7DCF
:10060000FBCF8091B0008F778093B00008958091E8
:10061000B0008F7DF9CF809190008F77809390000C
:100620000895809190008F7DF9CF80919000877F11
:10063000F5CF8091A0008F778093A00008958091DE
:10064000A0008F7DF9CF8091A000877FF5CF8091AA
:1006500020018F77809320010895809120018F7D64
:10066000F9CF80912001877FF5CFCF93DF93282F9B
:1006700030E0F901E25CFD4F8491F901E850FE4F52
:10068000D491F901EE54FE4FC491CC23A1F0811115
:100690000E94CE02EC2FF0E0EE0FFF1FE856FE4F57
:1006A000A591B491EC91ED2381E090E009F480E014
:1006B000DF91CF91089580E090E0FACF862F0C94DF
:1006C00035031F93CF93DF93282F30E0F901E25CCD
:1006D000FD4F8491F901E850FE4FD491F901EE5499
:1006E000FE4FC491CC23A9F0162F81110E94CE0297
:1006F000EC2FF0E0EE0FFF1FE258FE4FA591B491F2
:100700008FB7F894EC91111108C0D095DE23DC93DB
:100710008FBFDF91CF911F910895DE2BF8CF862FE9
:10072000642F0C946103CF93DF9390E0FC01E850B9
:10073000FE4F24918E549E4FFC0184918823C9F072
:1007400090E0880F991FFC01EC59FE4FA591B491E0
:10075000FC01E258FE4FC591D49161110DC09FB7C5
:10076000F8948C91209582238C9388812823288368
:100770009FBFDF91CF910895623051F49FB7F894F5
:100780003C91822F809583238C93E8812E2BEFCF91
:100790008FB7F894EC912E2B2C938FBFEACF862F36
:1007A000642F0C94930390917B00977F90937B0030
:1007B0008653806480937C0080917A00806480936B
:1007C0007A0080917A0086FDFCCF8091780090912C
:1007D000790008953FB7F8948091D5029091D602A0
:1007E000A091D702B091D80226B5A89B05C02F3F93
:1007F00019F00196A11DB11D3FBFBA2FA92F982F47
:100800008827BC01CD01620F711D811D911D42E041
:10081000660F771F881F991F4A95D1F708958F9209
:100820009F92AF92BF92CF92DF92EF92FF924B01D5
:100830005C010E94EA036B017C010E94EA036C19CF
:100840007D098E099F09683E734081059105A8F3D3
:1008500021E0821A9108A108B10888EEC80E83E051
:10086000D81EE11CF11C81149104A104B10429F7E4
:10087000FF90EF90DF90CF90BF90AF909F908F90C0
:1008800008952FB7F8946091D1027091D2028091AF
:10089000D3029091D4022FBF08950F931F93CF934B
:1008A000DF93C82FD62F86E0C89FF0011124EA5E9F
:1008B000FB4F11A2878D90A181309105F1F058F086
:1008C00082309105F1F1039709F440C0DF91CF9197
:1008D0001F910F9108956623C9F361E070E08C2F9A
:1008E0000E9477010E94410460936E0470936F042C
:1008F0008093700490937104E9CF0E9441040091A9
:100900006E0410916F042091700430917104AB015A
:10091000BC01401B510B620B730B809180049091C2
:100920008104B0E0A0E084179507A607B70748F454
:1009300062E070E08C2FDF91CF911F910F910C94AA
:10094000770163E070E0D111C1CFF4CF70E060E0D7
:10095000F1CF8F929F92AF92BF92FF920F931F930E
:10096000CF93DF93FC016F3F760711F470E060E0F6
:10097000F0808FE28F1508F44AC0828108E512E00A
:10098000081B110987FD1395000F111F000F111F80
:100990008181C8E8D0E0C81BD10987FDD395CC0F71
:1009A000DD1FCC0FDD1F4E010D2E000CAA08BB0869
:1009B0009801012E000C440B550B281939094A09DE
:1009C0005B09DB010E94941024EB30E040E050E032
:1009D0000E946A10820E931EA41EB51E8C169D06E0
:1009E0002CF0E801801691060CF4E4012297CC0F5C
:1009F000DD1F2FB7F8948F2D90E0FC01EE0FFF1F45
:100A0000E80FF91FE758FC4FD283C1832FBFDF9156
:100A1000CF911F910F91FF90BF90AF909F908F90BB
:100A200008951F93CF93DF93EC01162F88818033B5
:100A300008F04EC061E0812F0E9493038881282F27
:100A400030E0F901EE0FFF1FE20FF31FE758FC4FF4
:100A50001F736081607C612B608319821A822CE095
:100A6000622F0E940311829FB001112430E020E028
:100A7000AB01420F531FFA01EE0FFF1FE40FF51FEA
:100A8000E758FC4F908196FD16C02F5F3F4F2C30EA
:100A9000310571F7813009F51092800082E0809372
:100AA00081001092850010928400B19A80916F00AD
:100AB000826080936F00E8818E2F90E0FC01EE0F42
:100AC000FF1FE80FF91FE758FC4F80818064808387
:100AD0008881DF91CF911F910895823061F4109247
:100AE000900080939100109295001092940088BB22
:100AF00080937100E0CF833069F41092A00082E00F
:100B00008093A1001092A5001092A40089BB80934D
:100B10007200D1CF8111CFCF1092200182E080935B
:100B2000210110922501109224018ABB8093730049
:100B3000C2CFAF92BF92CF92DF92EF92FF920F930C
:100B40001F93CF93DF936B017A01EC01C453DD4F08
:100B500028813CE0389F8001399F100D1124A0901E
:100B60000904B12C27FF1FC0FB011182108288816C
:100B70008F5F888388819801280F311D87FD3A9502
:100B8000F6012A153B051CF488818C30C4F1808164
:100B90009181049680349C4908F473C0F6018081E9
:100BA0009181049670C088819801280F311D87FDBE
:100BB0003A952A153B05DCF68881A801480F511D9E
:100BC00087FD5A95FA01EE0FFF1FE40FF51FE75856
:100BD000FC4F808186FFCBCF8881F801E80FF11DA3
:100BE00087FDFA95CF01EE0FFF1FE80FF91FE758B9
:100BF000FC4F808160E08F730E946103B8CF8081D9
:100C000091812881A801420F511D27FD5A959A0113
:100C1000FA01EE0FFF1FE20FF31FE758FC4F21818F
:100C20003281820F931FF70191838083888198011D
:100C3000280F311D87FD3A95F901EE0FFF1FE20FD6
:100C4000F31FE758FC4F808186FF22C08881080F80
:100C5000111D87FD1A95F801EE0FFF1FE00FF11F20
:100C6000E758FC4F808161E08F73DF91CF911F9136
:100C70000F91FF90EF90DF90CF90BF90AF900C94CA
:100C8000610380E49CE9F701918380838FEF88837F
:100C9000DF91CF911F910F91FF90EF90DF90CF9058
:100CA000BF90AF900895089590E080E008950F936D
:100CB0001F93CF93DF9300D0CDB7DEB769837A83DC
:100CC0008B8310E000E0B801CE0101960E94A904D8
:100CD0006FE070E080E090E00E940F040F5F1F4F14
:100CE0000A35110581F768EB7BE080E090E00E9417
:100CF0000F04B801CE0101960E94A9046FE070E0D4
:100D000080E090E00E940F040150110990F70F90CD
:100D10000F900F90DF91CF911F910F910895CF9376
:100D2000DF93EC0160E08E810E94610361E08E81BF
:100D30000E94610360E08E810E9461038BE891E074
:100D40000197F1F7DF91CF910895CF92DF92EF9263
:100D5000FF920F931F93CF93DF936C017C0187E089
:100D6000E80EF11CD0E0C0E0062F10E0B8010C2E18
:100D700002C0759567950A94E2F76170F701819159
:100D80007F010E9461032196C430D10579F7C60125
:100D9000DF91CF911F910F91FF90EF90DF90CF9057
:100DA0000C948F06CF92DF92EF92FF920F931F93D6
:100DB000CF93DF93EC01F62E642F8C810E946103A8
:100DC0008D818F3F19F060E00E9461030F2D10E0CC
:100DD0008F8584FF25C06E0187E0C80ED11CF12CE1
:100DE000E12CB8010E2C02C0759567950A94E2F7C4
:100DF0006170F60181916F010E946103FFEFEF1AAC
:100E0000FF0A88E0E816F10461F7CE01DF91CF9187
:100E10001F910F91FF90EF90DF90CF900C948F0671
:100E2000B80184E0759567958A95E1F7CE010E9437
:100E3000A5066F2DCE01DF91CF911F910F91FF90ED
:100E4000EF90DF90CF900C94A50641E00E94D2066F
:100E500081E090E0089540E00C94D206FC012389E3
:100E6000621710F06FEF620FFC01E60FF11D64894D
:100E700060680C942B0761E00E942B078BE39FE1D5
:100E80000197F1F708950F931F93CF93DF93EC0130
:100E9000413019F08F8588608F874B8B1C8A80E4E6
:100EA0008D8B6E8B605C6F8B61E08C810E949303F5
:100EB0008D818F3F19F061E00E94930361E08E8184
:100EC0000E9493038E0198012C1B3D0B8F8584FD9E
:100ED0000DC084E090E00F5F1F4F281739074CF4D6
:100EE00061E0F80186810E949303EDCF88E090E0F5
:100EF000F2CF8BE39DE00197F1F760E08C810E94D7
:100F0000610360E08E810E9461038D818F3F19F043
:100F100060E00E9461036F8564FD34C063E0CE0130
:100F20000E94A5060BE416E4C8010197F1F763E0FF
:100F3000CE010E94A506C8010197F1F763E0CE013A
:100F40000E94A50683E592E00197F1F762E0CE01E9
:100F50000E94A5066F856062CE010E942B0784E087
:100F6000888B6CE0CE010E942B07CE010E943B07CC
:100F700082E0898B66E0CE01DF91CF911F910F91C6
:100F80000C942B076062CE010E942B078BE496E441
:100F90000197F1F76F856062CE010E942B0783E510
:100FA00092E00197F1F76F856062CE010E942B07F6
:100FB000D1CF8F929F92AF92BF920F931F93CF93F7
:100FC000DF93CDB7DEB7A1970FB6F894DEBF0FBEA3
:100FD000CDBF19A2423008F44AE08E010F5D1F4FC9
:100FE000842E912CB12CA12CA50194010E949C105F
:100FF000E62FB901CA01EA3044F5E05DD801EE936D
:101000008D01232B242B252B79F790E080E010977E
:1010100069F0FD0101900020E9F73197AF014A1B0B
:101020005B0BBD0185E894E00E949A01A1960FB682
:10103000F894DEBF0FBECDBFDF91CF911F910F910E
:10104000BF90AF909F908F900895E95CD7CFFB0140
:1010500001900020E9F73197AF01461B570B0C9424
:101060009A01CF93DF93EC0180910A0490910B04D5
:10107000009759F020910C0430910D042C173D0776
:1010800020F081E0DF91CF910895BE016F5F7F4F27
:101090000E943C12009789F090930B0480930A04FD
:1010A000D0930D04C0930C0420910E0430910F04D2
:1010B000232B39F7FC011082E4CF80E0E3CFCF93FC
:1010C000DF93EC010E94310820910A0430910B0457
:1010D000811117C02115310519F0C9010E94B31102
:1010E00010920B0410920A0410920F0410920E0436
:1010F00010920D0410920C048AE094E0DF91CF91DD
:101100000895D0930F04C0930E0463EC72E0C901FC
:101110000E942F13F1CF0F931F93CF93DF93182FBC
:10112000EB0161E00E94930360E0812F0E94610364
:1011300083E090E00197F1F761E0812F0E94610365
:1011400083E290E00197F1F760E0812F0E94610354
:1011500060E08C2F0E949303DD27FE01E850FE4FD4
:101160006491FE01EE54FE4FE491F0E0EE0FFF1F9C
:10117000E856FE4F8591949100E412E42FE030E0B0
:10118000462F0E94340A611571058105910529F0E9
:101190006F5F7F4F8F4F9F4F9F70DF91CF911F9158
:1011A0000F9108951F920F920FB60F9211240BB654
:1011B0000F922F933F934F935F936F937F938F93F0
:1011C0009F93AF93BF93EF93FF938CED92E00E94B8
:1011D0000E02FF91EF91BF91AF919F918F917F91FF
:1011E0006F915F914F913F912F910F900BBE0F9098
:1011F0000FBE0F901F9018951F920F920FB60F926F
:1012000011240BB60F922F938F939F93EF93FF931D
:10121000E091EC02F091ED028081E091F202F09118
:10122000F30282FD1DC090818091F5028F5F8F7364
:101230002091F602821741F0E091F502F0E0E452CD
:10124000FD4F958F8093F502FF91EF919F918F91C4
:101250002F910F900BBE0F900FBE0F901F901895FF
:101260008081F2CF1F920F920FB60F9211242F930D
:101270003F938F939F93AF93BF938091D1029091AF
:10128000D202A091D302B091D4023091D00223E0D7
:10129000230F2D3758F50196A11DB11D2093D002C3
:1012A0008093D1029093D202A093D302B093D40240
:1012B0008091D5029091D602A091D702B091D80228
:1012C0000196A11DB11D8093D5029093D602A093E3
:1012D000D702B093D802BF91AF919F918F913F9168
:1012E0002F910F900FBE0F901F90189526E8230F97
:1012F0000296A11DB11DD2CF1F920F920FB60F9271
:1013000011240BB60F922F933F934F935F936F93DC
:101310007F938F939F93AF93BF93EF93FF9348E295
:1013200051E064E271E090E080E00E949905FF9155
:10133000EF91BF91AF919F918F917F916F915F914D
:101340004F913F912F910F900BBE0F900FBE0F90BA
:101350001F9018951F920F920FB60F9211240BB683
:101360000F922F933F934F935F936F937F938F933E
:101370009F93AF93BF93EF93FF9348EA50E064EAE3
:1013800070E083E090E00E949905FF91EF91BF919A
:10139000AF919F918F917F916F915F914F913F910D
:1013A0002F910F900BBE0F900FBE0F901F901895AE
:1013B0001F920F920FB60F9211240BB60F922F931C
:1013C0003F934F935F936F937F938F939F93AF93CD
:1013D000BF93EF93FF9348E950E064E970E082E047
:1013E00090E00E949905FF91EF91BF91AF919F917D
:1013F0008F917F916F915F914F913F912F910F90BE
:101400000BBE0F900FBE0F901F9018951F920F925A
:101410000FB60F9211240BB60F922F933F934F9359
:101420005F936F937F938F939F93AF93BF93EF934C
:10143000FF9348E850E064E870E081E090E00E94AB
:101440009905FF91EF91BF91AF919F918F917F91FE
:101450006F915F914F913F912F910F900BBE0F9025
:101460000FBE0F901F901895CF92DF92EF92FF92D0
:101470000F931F93E82FF92F05C00150110921097F
:10148000310961F1908196239417B9F305C0015099
:1014900011092109310911F1908196239413F7CF95
:1014A000C12CD12CE12CF12C0AC08FEFC81AD80A1C
:1014B000E80AF80A0C151D052E053F0579F0808114
:1014C0008623841791F36C2D7D2D8E2D9F2D1F91DA
:1014D0000F91FF90EF90DF90CF90089560E070E063
:1014E00080E090E01F910F91FF90EF90DF90CF9000
:1014F00008950F931F93CF931092DF021092DE0294
:1015000088EE93E0A0E0B0E08093E0029093E102E7
:10151000A093E202B093E3028DE192E09093DD02AA
:101520008093DC028DEC90E09093E9028093E802D6
:101530008CEC90E09093EB028093EA0288EC90E0D0
:101540009093ED028093EC0289EC90E09093EF028F
:101550008093EE028AEC90E09093F1028093F00287
:101560008EEC90E09093F3028093F2021092F502D9
:101570001092F6021092F7021092F8021092A00454
:1015800010929F0409E312E010939E0400939D04BF
:1015900088E08093A104CFEFC093A20489E08093F8
:1015A000A30484E08093A40485E08093A50486E0EE
:1015B0008093A60487E08093A7041092A804109259
:1015C000A9041092AA041092AB041092AC0441E05A
:1015D00060E18DE994E00E94430710928804109224
:1015E0008704109386040093850483E38093890421
:1015F000C0938A048FE280938B0487E280938C04EB
:1016000089E280938D048BE280938E048DE2809337
:101610008F041092900410929104109292041092F0
:1016200093041092940441E060E185E894E00E9404
:1016300043071092180410921C0410921B0410927D
:101640001D048FE292E09093170480931604E2E366
:10165000F4E01082148213821582369684E0EE360E
:10166000F807B9F783E092E09093790480937804C7
:1016700080E092E090937B0480937A0484E08093EE
:101680007C0483E080937D0487E092E0909377046C
:10169000809376048AE090E090937F0480937E04A8
:1016A00084EF91E0909381048093800410928404ED
:1016B00010928304109272041092730410927404B6
:1016C0001092750410928204809109048033D8F539
:1016D00091E0980F909309048093130490E0FC012B
:1016E000EE0FFF1FE80FF91FE758FC4F88EB9BE058
:1016F0009283818380910904803348F591E0980FAB
:10170000909309048093100490E0FC01EE0FFF1FFA
:10171000E80FF91FE758FC4F88EB9BE09283818329
:1017200010920B0410920A0410920D0410920C04F3
:1017300010920F0410920E0490E080E0CF911F9160
:101740000F910C945F088FEF80931304D3CF8FEF2A
:1017500080931004E5CFCF93DF9300D000D01F9289
:101760001F92CDB7DEB7789484B5826084BD84B50E
:10177000816084BD85B5826085BD85B5816085BD8C
:1017800080916E00816080936E0010928100809144
:1017900081008260809381008091810081608093CC
:1017A0008100809180008160809380008091B100F1
:1017B00084608093B1008091B00081608093B0001C
:1017C000809191008260809391008091910081606E
:1017D000809391008091900081608093900080912F
:1017E000A10082608093A1008091A100816080931C
:1017F000A1008091A00081608093A00080912101D0
:101800008260809321018091210181608093210178
:101810008091200181608093200180917A00846012
:1018200080937A0080917A00826080937A00809120
:101830007A00816080937A0080917A00806880933A
:101840007A001092C100E091EC02F091ED0282E08A
:101850008083E091E802F091E9021082E091EA02CF
:10186000F091EB028FEC80831092F402E091F00291
:10187000F091F10286E08083E091EE02F091EF02B8
:10188000808180618083E091EE02F091EF0280819F
:1018900088608083E091EE02F091EF0280818068A1
:1018A0008083E091EE02F091EF0280818F7D808352
:1018B00042E060E18DE994E00E94430744E064E186
:1018C00085E894E00E94430761E08BE00E94930367
:1018D0006CE070E083E194E00E94110570E060E04C
:1018E00083E194E00E94A9046DE070E080E194E05F
:1018F0000E94110570E060E080E194E00E94A9047C
:10190000412C512C320143948091DB02811129C278
:101910006AE070E08AE090E00E948B080E94710FFC
:101920002EEE35E24DE85CE30E94AC0F0E94CD1034
:10193000673971050CF0EFC18DE994E00E943B0717
:1019400061E472E08DE994E00E94270861E08DE98E
:1019500094E00E942E076CE472E08DE994E00E940E
:10196000270841E06EEE8DE994E00E94D20668E619
:1019700072E08DE994E00E94270890E080E00E94E8
:101980005F0821E0209382040E94410400917204C8
:10199000109173042091740430917504AB01BC0163
:1019A000401B510B620B730B80917E0490917F045E
:1019B000B0E0A0E084179507A607B70710F710E07E
:1019C00080917C04181760F4E0917804F091790418
:1019D000E10FF11D62E080810E9493031F5FF0CF51
:1019E000312C80917D04381608F061C0E32CF12C75
:1019F000E0917A04F0917B04EE0DFF1D61E080819F
:101A00000E949303E0917A04F0917B04EE0DFF1D98
:101A100060E080810E946103D301C201032C04C0F5
:101A2000880F991FAA1FBB1F0A94D2F74C016C01A3
:101A3000C094D094212C80917C04281608F5022DA6
:101A400010E0E0917804F0917904E00FF11F8081BB
:101A50000E9435030C5F1F4F000F111FF801EA5E53
:101A6000FB4F892B41F480819181882999299183A9
:101A700080832394E0CF808191818C219D21F7CFB9
:101A8000E0917A04F0917B04EE0DFF1D61E080810E
:101A90000E94610380917A0490917B04E80EF91E04
:101AA00060E0F70180810E94930333949ACF06E1AE
:101AB00014E07801F701878D90A1892B31F4148E01
:101AC0008FEF9FEF968F858F11A296E0E90EF11CA4
:101AD000E2E5EE16E4E0FE0669F7912C80917C04C5
:101AE000981608F053C0812CC92CD12CCC0CDD1CCD
:101AF000C601825E9B4F6C0120917D04821608F026
:101B000043C0F60160817181082C02C0769567950B
:101B10000A94E2F7929E90011124280D311DE6E10E
:101B2000F4E080E0458D568D2417350709F48DC10A
:101B30008F5F36968A30B1F760FF24C0E6E1F4E0AB
:101B400090E080E0448D411118C0E0917604F0915E
:101B50007704E20FF31F408156E0589FF001599F30
:101B6000F00D1124EA5EFB4F448F368F258F10A2B3
:101B7000178E61E00E944D0405C0019636968A30AA
:101B8000910501F78394B8CF9394A8CFD12CF80195
:101B900081A18111D82E0A5F1F4FE016F106B9F717
:101BA0000E944104609372047093730480937404E0
:101BB00090937504DD2009F4E4CE809137048823E6
:101BC00009F4DFCE8091350490913604019709F035
:101BD000D8CE80913204882309F4D3CE00910E042C
:101BE00010910F048A3209F432C189831A820F5F7F
:101BF0001F4FC8010E943108882309F4C2CE2091EA
:101C00000A0430910B0480910E0490910F04BE01E0
:101C10006F5F7F4F820F931F0E942F1310930F044B
:101C200000930E04AECE8091D9029091DA02019613
:101C30009093DA028093D902039709F040C0109282
:101C4000DA021092D9028DE994E00E943B0763E723
:101C500072E08DE994E00E94270861E08DE994E04C
:101C60000E942E076DE772E08DE994E00E9427083C
:101C70000E9441046B017C01F0E2CF0EFEE4DF1E06
:101C8000E11CF11C0E9441046C157D058E059F0529
:101C900008F052CE61E08BE00E94610368EE73E0D1
:101CA00080E090E00E940F0460E08BE00E946103FE
:101CB00068EE73E080E090E00E940F04E3CF8DE9CE
:101CC00094E00E943B0768E872E08DE994E00E948E
:101CD000270861E08DE994E00E942E076CE472E031
:101CE0008DE994E00E94270841E06EEE8DE994E0D2
:101CF0000E94D20668E672E08DE994E00E9427080F
:101D000068EE73E080E090E00E940F048DE994E0BB
:101D10000E943B0711CE61E972E08DE994E00E94D8
:101D2000270861E08DE994E00E942E0762EA72E0E4
:101D30008DE994E00E9427086CED75E080E090E06A
:101D40000E940F048DE994E00E943B0767EA72E06D
:101D50008DE994E00E9427086CED75E080E090E04A
:101D6000ACC086E30E94D3039A83898387E30E94F1
:101D7000D3039C838B8388E30E94D3039E838D834C
:101D800089E30E94D30398878F8385E894E00E94BB
:101D90003B078E010F5F1F4F812C912C54018394C0
:101DA000F12C6F2D85E894E00E942E0765EB72E020
:101DB00085E894E00E9427084AE0C501B4010E942A
:101DC000D90761EC72E085E894E00E942708F801E9
:101DD000819191918F0164EC72E00A9711F068ECA7
:101DE00072E085E894E00E942708F3942FEF821AAE
:101DF000920AA20AB20A54E0F512D3CF68EE73E059
:101E000080E090E00E940F0463E070E083E090E0E7
:101E10000E948B080E94710F2EEE35E24DE85CE3C4
:101E20000E94AC0F0E94CD10673971050CF04BC0B9
:101E30006091100470911104809112040E94570661
:101E40001092DB0285E894E03CC0617093CE012BD8
:101E500009F4E9CE66E572E080910A0490910B04E2
:101E60000E942613892B09F0DECE1092DA0210921E
:101E7000D9028DE994E00E943B076DE572E08DE99F
:101E800094E00E94270861E08DE994E00E942E070B
:101E90006AE672E08DE994E00E94270860911304DD
:101EA00070911404809115040E94570681E080937C
:101EB000DB0268EE73E080E090E00E940F048DE9A1
:101EC00094E00E943B070E949D021ECD80910A046F
:101ED00090910B04009711F00C94B3110895E894BD
:101EE00009C097FB3EF490958095709561957F4F62
:101EF0008F4F9F4F9923A9F0F92F96E9BB27939510
:101F0000F695879577956795B795F111F8CFFAF41F
:101F1000BB0F11F460FF1BC06F5F7F4F8F4F9F4F50
:101F200016C0882311F096E911C0772321F09EE8AE
:101F3000872F762F05C0662371F096E8862F70E014
:101F400060E02AF09A95660F771F881FDAF7880FEE
:101F50009695879597F908950E94BF0F0C943010BD
:101F60000E94221038F00E94291020F0952311F0D1
:101F70000C9419100C941F1011240C9464100E94DE
:101F8000411070F3959FC1F3950F50E0551F629F6C
:101F9000F001729FBB27F00DB11D639FAA27F00DC2
:101FA000B11DAA1F649F6627B00DA11D661F829FE9
:101FB0002227B00DA11D621F739FB00DA11D621FCE
:101FC000839FA00D611D221F749F3327A00D611DEB
:101FD000231F849F600D211D822F762F6A2F1124CD
:101FE0009F5750409AF0F1F088234AF0EE0FFF1F00
:101FF000BB1F661F771F881F91505040A9F79E3F57
:10200000510580F00C9419100C9464105F3FE4F3B8
:10201000983ED4F3869577956795B795F795E795AC
:102020009F5FC1F7FE2B880F911D9695879597F9B5
:10203000089597F99F6780E870E060E008959FEF4A
:1020400080EC089500240A9416161706180609064F
:10205000089500240A94121613061406050608951E
:10206000092E0394000C11F4882352F0BB0F40F4A6
:10207000BF2B11F460FF04C06F5F7F4F8F4F9F4FE6
:10208000089557FD9058440F551F59F05F3F71F068
:102090004795880F97FB991F61F09F3F79F08795CF
:1020A0000895121613061406551FF2CF4695F1DF58
:1020B00008C0161617061806991FF1CF86957105E8
:1020C000610508940895E894BB2766277727CB011C
:1020D00097F90895052E97FB1EF400940E94811035
:1020E00057FD07D00E949C1007FC03D04EF40C94BF
:1020F000811050954095309521953F4F4F4F5F4F40
:10210000089590958095709561957F4F8F4F9F4F63
:1021100008950E94BE10A59F900DB49F900DA49F9E
:10212000800D911D11240895B7FF0C9489100E9411
:102130008910821B930B0895A1E21A2EAA1BBB1BC8
:10214000FD010DC0AA1FBB1FEE1FFF1FA217B30783
:10215000E407F50720F0A21BB30BE40BF50B661F99
:10216000771F881F991F1A9469F76095709580955D
:1021700090959B01AC01BD01CF010895A29FB001D4
:10218000B39FC001A39F700D811D1124911DB29FAB
:10219000700D811D1124911D08950E94D410689422
:1021A000B1110C94641008950E94491088F09F5753
:1021B00098F0B92F9927B751B0F0E1F0660F771F6B
:1021C000881F991F1AF0BA95C9F714C0B13091F061
:1021D0000E946310B1E008950C946310672F782F6C
:1021E0008827B85F39F0B93FCCF386957795679526
:1021F000B395D9F73EF490958095709561957F4F92
:102200008F4F9F4F0895991B79E004C0991F96172F
:1022100008F0961B881F7A95C9F780950895EE0FF0
:10222000FF1F881F8BBF0790F691E02D19940F9325
:102230001F93CF93DF938230910510F482E090E0FA
:10224000E091B704F091B80430E020E0B0E0A0E005
:10225000309799F42115310509F44AC0281B390B30
:1022600024303105D8F58A819B816115710589F18A
:10227000FB0193838283FE0111C040815181028161
:10228000138148175907E0F04817590799F4109738
:1022900061F012960C93129713961C933296CF010D
:1022A000DF91CF911F910F9108950093B704109380
:1022B000B804F4CF2115310551F04217530738F017
:1022C000A901DB019A01BD01DF01F801C1CFEF01D6
:1022D000F9CF9093B8048093B704CDCFFE01E20FFD
:1022E000F31F819391932250310939832883D7CFEB
:1022F0002091B5043091B604232B41F420911502AE
:10230000309116023093B6042093B5042091130245
:10231000309114022115310541F42DB73EB740919B
:10232000170250911802241B350BE091B504F0916F
:10233000B604E217F307A0F42E1B3F0B281739074A
:1023400078F0AC014E5F5F4F2417350748F04E0F11
:102350005F1F5093B6044093B504819391939FCF30
:10236000F0E0E0E09CCFCF93DF930097E9F0FC0131
:10237000329713821282A091B704B091B804ED0194
:1023800030E020E01097A1F420813181820F931F6B
:102390002091B5043091B6042817390709F061C0BF
:1023A000F093B604E093B504DF91CF910895EA016C
:1023B000CE17DF07E8F54A815B819E014115510583
:1023C000B1F7E901FB83EA8349915991C40FD51F05
:1023D000EC17FD0761F4808191810296840F951FAF
:1023E000E90199838883828193819B838A83F0E0CA
:1023F000E0E012968D919C9113970097B9F52D917D
:102400003C911197CD010296820F931F2091B50444
:102410003091B6042817390739F6309751F51092E4
:10242000B8041092B704B093B604A093B504BCCF1F
:10243000D383C28340815181840F951FC817D90768
:1024400061F44E5F5F4F88819981480F591F518316
:1024500040838A819B81938382832115310509F012
:10246000B0CFF093B804E093B7049ECFFD01DC0138
:10247000C0CF13821282D7CF4F925F926F927F921A
:102480008F929F92AF92BF92CF92DF92EF92FF9284
:102490000F931F93CF93DF938C01009799F4CB0197
:1024A000DF91CF911F910F91FF90EF90DF90CF9030
:1024B000BF90AF909F908F907F906F905F904F9064
:1024C0000C941711FC01E60FF71F9C0122503109F3
:1024D000E217F30708F4AEC0D901CD91DC91119752
:1024E000C617D70720F1C530D10578F0CE01049783
:1024F0008617970750F0C61BD70B2297C193D1932D
:102500006D937C93CF010E94B311C801DF91CF91ED
:102510001F910F91FF90EF90DF90CF90BF90AF9001
:102520009F908F907F906F905F904F9008955B0188
:10253000AC1ABD0A4C018C0E9D1EA091B704B0913F
:10254000B804512C412CF12CE12C109731F58091DD
:10255000B5049091B6048815990509F05CC046163B
:10256000570608F058C0809113029091140200970A
:1025700041F48DB79EB74091170250911802841B09
:10258000950BE817F90708F055C0F093B604E093EF
:10259000B504F90171836083B8CF8D919C91119737
:1025A00012966C90129713967C901397A815B90504
:1025B00059F56C0142E0C40ED11CCA14DB0420F1B1
:1025C000AC014A195B09DA011296159780F0628214
:1025D000738251834083D9016D937C93E114F1049C
:1025E00071F0D7011396FC93EE9312978ECF22963B
:1025F0008C0F9D1FF90191838083F301EFCFF0933E
:10260000B804E093B70481CF4816590608F42C01AA
:102610007D01D3019ACFCB010E9417117C01009755
:1026200049F0AE01B8010E941D13C8010E94B31108
:1026300087016BCF10E000E068CFFB01DC0102C036
:1026400001900D9241505040D8F70895FB01DC01F4
:102650008D91019080190110D9F3990B0895FB0118
:10266000DC0101900D920020E1F7089511E0C3E430
:10267000D1E000E006C0802FFE010E940F112196DC
:10268000011DC434D10780E00807A9F7F894FFCFF3
:1026900016181A1C1E202231323334353637383999
:1026A0002A30230000B90480000000000030029AA4
:1026B00001C7017D02F801D601EA0100000000CF48
:1026C000038F035E030000000025079A01540653A0
:1026D00006496E677265736520737500636F6E736C
:1026E0007472617365003230323131300042696595
:1026F0006E76656E69646F20610063617361205E50
:102700005F5E0041636365736F206E6F0061757477
:102710006F72697A61646F004572726F7220656EC4
:10272000004341534120494E54454C4947454E547E
:1027300045004143453100414345312D4E2D473140
:10274000302D53310048616269746163696F6E2096
:0C275000003A20004F4646004F4E0000AB
:00000001FF
